{
  "_format": "hh-sol-artifact-1",
  "contractName": "DuelOutcomeOracle",
  "sourceName": "contracts/DuelOutcomeOracle.sol",
  "abi": [
    {
      "inputs": [
        {
          "internalType": "address",
          "name": "admin",
          "type": "address"
        },
        {
          "internalType": "address",
          "name": "reporter",
          "type": "address"
        }
      ],
      "stateMutability": "nonpayable",
      "type": "constructor"
    },
    {
      "inputs": [],
      "name": "AccessControlBadConfirmation",
      "type": "error"
    },
    {
      "inputs": [
        {
          "internalType": "address",
          "name": "account",
          "type": "address"
        },
        {
          "internalType": "bytes32",
          "name": "neededRole",
          "type": "bytes32"
        }
      ],
      "name": "AccessControlUnauthorizedAccount",
      "type": "error"
    },
    {
      "inputs": [],
      "name": "DuelAlreadyCancelled",
      "type": "error"
    },
    {
      "inputs": [],
      "name": "DuelAlreadyResolved",
      "type": "error"
    },
    {
      "inputs": [],
      "name": "DuelMissing",
      "type": "error"
    },
    {
      "inputs": [],
      "name": "DuplicateParticipants",
      "type": "error"
    },
    {
      "inputs": [],
      "name": "InvalidAdmin",
      "type": "error"
    },
    {
      "inputs": [],
      "name": "InvalidBettingWindow",
      "type": "error"
    },
    {
      "inputs": [],
      "name": "InvalidDuelEnd",
      "type": "error"
    },
    {
      "inputs": [],
      "name": "InvalidDuelKey",
      "type": "error"
    },
    {
      "inputs": [],
      "name": "InvalidDuelStart",
      "type": "error"
    },
    {
      "inputs": [],
      "name": "InvalidParticipant",
      "type": "error"
    },
    {
      "inputs": [],
      "name": "InvalidReporter",
      "type": "error"
    },
    {
      "inputs": [],
      "name": "InvalidStatus",
      "type": "error"
    },
    {
      "inputs": [],
      "name": "InvalidTransition",
      "type": "error"
    },
    {
      "inputs": [],
      "name": "InvalidWinner",
      "type": "error"
    },
    {
      "anonymous": false,
      "inputs": [
        {
          "indexed": true,
          "internalType": "bytes32",
          "name": "duelKey",
          "type": "bytes32"
        },
        {
          "indexed": false,
          "internalType": "string",
          "name": "metadataUri",
          "type": "string"
        }
      ],
      "name": "DuelCancelled",
      "type": "event"
    },
    {
      "anonymous": false,
      "inputs": [
        {
          "indexed": true,
          "internalType": "bytes32",
          "name": "duelKey",
          "type": "bytes32"
        },
        {
          "indexed": false,
          "internalType": "enum DuelOutcomeOracle.Side",
          "name": "winner",
          "type": "uint8"
        },
        {
          "indexed": false,
          "internalType": "uint64",
          "name": "seed",
          "type": "uint64"
        },
        {
          "indexed": false,
          "internalType": "uint64",
          "name": "duelEndTs",
          "type": "uint64"
        },
        {
          "indexed": false,
          "internalType": "bytes32",
          "name": "resultHash",
          "type": "bytes32"
        },
        {
          "indexed": false,
          "internalType": "bytes32",
          "name": "replayHash",
          "type": "bytes32"
        },
        {
          "indexed": false,
          "internalType": "string",
          "name": "metadataUri",
          "type": "string"
        }
      ],
      "name": "DuelResolved",
      "type": "event"
    },
    {
      "anonymous": false,
      "inputs": [
        {
          "indexed": true,
          "internalType": "bytes32",
          "name": "duelKey",
          "type": "bytes32"
        },
        {
          "indexed": false,
          "internalType": "enum DuelOutcomeOracle.DuelStatus",
          "name": "status",
          "type": "uint8"
        },
        {
          "indexed": false,
          "internalType": "uint64",
          "name": "betOpenTs",
          "type": "uint64"
        },
        {
          "indexed": false,
          "internalType": "uint64",
          "name": "betCloseTs",
          "type": "uint64"
        },
        {
          "indexed": false,
          "internalType": "uint64",
          "name": "duelStartTs",
          "type": "uint64"
        },
        {
          "indexed": false,
          "internalType": "string",
          "name": "metadataUri",
          "type": "string"
        }
      ],
      "name": "DuelUpserted",
      "type": "event"
    },
    {
      "anonymous": false,
      "inputs": [
        {
          "indexed": true,
          "internalType": "bytes32",
          "name": "role",
          "type": "bytes32"
        },
        {
          "indexed": true,
          "internalType": "bytes32",
          "name": "previousAdminRole",
          "type": "bytes32"
        },
        {
          "indexed": true,
          "internalType": "bytes32",
          "name": "newAdminRole",
          "type": "bytes32"
        }
      ],
      "name": "RoleAdminChanged",
      "type": "event"
    },
    {
      "anonymous": false,
      "inputs": [
        {
          "indexed": true,
          "internalType": "bytes32",
          "name": "role",
          "type": "bytes32"
        },
        {
          "indexed": true,
          "internalType": "address",
          "name": "account",
          "type": "address"
        },
        {
          "indexed": true,
          "internalType": "address",
          "name": "sender",
          "type": "address"
        }
      ],
      "name": "RoleGranted",
      "type": "event"
    },
    {
      "anonymous": false,
      "inputs": [
        {
          "indexed": true,
          "internalType": "bytes32",
          "name": "role",
          "type": "bytes32"
        },
        {
          "indexed": true,
          "internalType": "address",
          "name": "account",
          "type": "address"
        },
        {
          "indexed": true,
          "internalType": "address",
          "name": "sender",
          "type": "address"
        }
      ],
      "name": "RoleRevoked",
      "type": "event"
    },
    {
      "inputs": [],
      "name": "DEFAULT_ADMIN_ROLE",
      "outputs": [
        {
          "internalType": "bytes32",
          "name": "",
          "type": "bytes32"
        }
      ],
      "stateMutability": "view",
      "type": "function"
    },
    {
      "inputs": [],
      "name": "REPORTER_ROLE",
      "outputs": [
        {
          "internalType": "bytes32",
          "name": "",
          "type": "bytes32"
        }
      ],
      "stateMutability": "view",
      "type": "function"
    },
    {
      "inputs": [
        {
          "internalType": "bytes32",
          "name": "duelKey",
          "type": "bytes32"
        },
        {
          "internalType": "string",
          "name": "metadataUri",
          "type": "string"
        }
      ],
      "name": "cancelDuel",
      "outputs": [],
      "stateMutability": "nonpayable",
      "type": "function"
    },
    {
      "inputs": [
        {
          "internalType": "bytes32",
          "name": "duelKey",
          "type": "bytes32"
        }
      ],
      "name": "getDuel",
      "outputs": [
        {
          "components": [
            {
              "internalType": "bytes32",
              "name": "duelKey",
              "type": "bytes32"
            },
            {
              "internalType": "bytes32",
              "name": "participantAHash",
              "type": "bytes32"
            },
            {
              "internalType": "bytes32",
              "name": "participantBHash",
              "type": "bytes32"
            },
            {
              "internalType": "enum DuelOutcomeOracle.DuelStatus",
              "name": "status",
              "type": "uint8"
            },
            {
              "internalType": "enum DuelOutcomeOracle.Side",
              "name": "winner",
              "type": "uint8"
            },
            {
              "internalType": "uint64",
              "name": "betOpenTs",
              "type": "uint64"
            },
            {
              "internalType": "uint64",
              "name": "betCloseTs",
              "type": "uint64"
            },
            {
              "internalType": "uint64",
              "name": "duelStartTs",
              "type": "uint64"
            },
            {
              "internalType": "uint64",
              "name": "duelEndTs",
              "type": "uint64"
            },
            {
              "internalType": "uint64",
              "name": "seed",
              "type": "uint64"
            },
            {
              "internalType": "bytes32",
              "name": "resultHash",
              "type": "bytes32"
            },
            {
              "internalType": "bytes32",
              "name": "replayHash",
              "type": "bytes32"
            },
            {
              "internalType": "string",
              "name": "metadataUri",
              "type": "string"
            }
          ],
          "internalType": "struct DuelOutcomeOracle.DuelState",
          "name": "",
          "type": "tuple"
        }
      ],
      "stateMutability": "view",
      "type": "function"
    },
    {
      "inputs": [
        {
          "internalType": "bytes32",
          "name": "role",
          "type": "bytes32"
        }
      ],
      "name": "getRoleAdmin",
      "outputs": [
        {
          "internalType": "bytes32",
          "name": "",
          "type": "bytes32"
        }
      ],
      "stateMutability": "view",
      "type": "function"
    },
    {
      "inputs": [
        {
          "internalType": "bytes32",
          "name": "role",
          "type": "bytes32"
        },
        {
          "internalType": "address",
          "name": "account",
          "type": "address"
        }
      ],
      "name": "grantRole",
      "outputs": [],
      "stateMutability": "nonpayable",
      "type": "function"
    },
    {
      "inputs": [
        {
          "internalType": "bytes32",
          "name": "role",
          "type": "bytes32"
        },
        {
          "internalType": "address",
          "name": "account",
          "type": "address"
        }
      ],
      "name": "hasRole",
      "outputs": [
        {
          "internalType": "bool",
          "name": "",
          "type": "bool"
        }
      ],
      "stateMutability": "view",
      "type": "function"
    },
    {
      "inputs": [
        {
          "internalType": "bytes32",
          "name": "role",
          "type": "bytes32"
        },
        {
          "internalType": "address",
          "name": "callerConfirmation",
          "type": "address"
        }
      ],
      "name": "renounceRole",
      "outputs": [],
      "stateMutability": "nonpayable",
      "type": "function"
    },
    {
      "inputs": [
        {
          "internalType": "bytes32",
          "name": "duelKey",
          "type": "bytes32"
        },
        {
          "internalType": "enum DuelOutcomeOracle.Side",
          "name": "winner",
          "type": "uint8"
        },
        {
          "internalType": "uint64",
          "name": "seed",
          "type": "uint64"
        },
        {
          "internalType": "bytes32",
          "name": "replayHash",
          "type": "bytes32"
        },
        {
          "internalType": "bytes32",
          "name": "resultHash",
          "type": "bytes32"
        },
        {
          "internalType": "uint64",
          "name": "duelEndTs",
          "type": "uint64"
        },
        {
          "internalType": "string",
          "name": "metadataUri",
          "type": "string"
        }
      ],
      "name": "reportResult",
      "outputs": [],
      "stateMutability": "nonpayable",
      "type": "function"
    },
    {
      "inputs": [
        {
          "internalType": "bytes32",
          "name": "role",
          "type": "bytes32"
        },
        {
          "internalType": "address",
          "name": "account",
          "type": "address"
        }
      ],
      "name": "revokeRole",
      "outputs": [],
      "stateMutability": "nonpayable",
      "type": "function"
    },
    {
      "inputs": [
        {
          "internalType": "address",
          "name": "reporter",
          "type": "address"
        },
        {
          "internalType": "bool",
          "name": "enabled",
          "type": "bool"
        }
      ],
      "name": "setReporter",
      "outputs": [],
      "stateMutability": "nonpayable",
      "type": "function"
    },
    {
      "inputs": [
        {
          "internalType": "bytes4",
          "name": "interfaceId",
          "type": "bytes4"
        }
      ],
      "name": "supportsInterface",
      "outputs": [
        {
          "internalType": "bool",
          "name": "",
          "type": "bool"
        }
      ],
      "stateMutability": "view",
      "type": "function"
    },
    {
      "inputs": [
        {
          "internalType": "bytes32",
          "name": "duelKey",
          "type": "bytes32"
        },
        {
          "internalType": "bytes32",
          "name": "participantAHash",
          "type": "bytes32"
        },
        {
          "internalType": "bytes32",
          "name": "participantBHash",
          "type": "bytes32"
        },
        {
          "internalType": "uint64",
          "name": "betOpenTs",
          "type": "uint64"
        },
        {
          "internalType": "uint64",
          "name": "betCloseTs",
          "type": "uint64"
        },
        {
          "internalType": "uint64",
          "name": "duelStartTs",
          "type": "uint64"
        },
        {
          "internalType": "string",
          "name": "metadataUri",
          "type": "string"
        },
        {
          "internalType": "enum DuelOutcomeOracle.DuelStatus",
          "name": "status",
          "type": "uint8"
        }
      ],
      "name": "upsertDuel",
      "outputs": [],
      "stateMutability": "nonpayable",
      "type": "function"
    }
  ],
  "bytecode": "0x608034620000be57601f620015d538819003918201601f19168301916001600160401b03831184841017620000c3578084926040948552833981010312620000be576200005a60206200005283620000d9565b9201620000d9565b6001600160a01b0382811615620000ac578116156200009a57620000826200008992620000ee565b506200016e565b506040516113a49081620002118239f35b604051631d73770560e11b8152600490fd5b604051630b5eba9f60e41b8152600490fd5b600080fd5b634e487b7160e01b600052604160045260246000fd5b51906001600160a01b0382168203620000be57565b6001600160a01b031660008181527fad3228b676f7d3cd4284a5443f17f1962b36e491b30a40b2405849e597ba5fb5602052604081205490919060ff166200016a57818052816020526040822081835260205260408220600160ff198254161790553391600080516020620015b58339815191528180a4600190565b5090565b6001600160a01b031660008181527f4cc0a64818843a39e4cd2f1885e814e78757c2ef3df4dd05f82735613da08b1160205260408120549091907f3204c940063673962b481a0395619b3dbbd137589c419e993978c1c71bcf68ec9060ff166200020b57808352826020526040832082845260205260408320600160ff19825416179055600080516020620015b5833981519152339380a4600190565b50509056fe608080604052600436101561001357600080fd5b60003560e01c90816301ffc9a714610f1757508063248a9ca314610ee85780632f2ff15d14610ea957806336568abe14610e625780633f60d79914610e3957806356c50e3f14610b2857806391d1485414610adb578063a217fddf14610abf578063b72bcdc3146107c7578063c2cad8d3146103c8578063d547741f14610389578063d699c4ec1461016b5763e1bb5133146100ae57600080fd5b34610166576040366003190112610166576004356001600160a01b03811680820361016657602435908115158203610166573360009081527fad3228b676f7d3cd4284a5443f17f1962b36e491b30a40b2405849e597ba5fb5602052604090205460ff16156101475715610135571561012c5761012a906110e2565b005b61012a906111fb565b604051631d73770560e11b8152600490fd5b60405163e2517d3f60e01b815233600482015260006024820152604490fd5b600080fd5b34610166576040366003190112610166576004356001600160401b036024358181116101665761019f903690600401610fb0565b91906101a9611054565b836000526001916020928084526040600020600381019081549160ff8316600681101561037357156103615760056007936101e384611309565b60ff19161790550191851161034b576101fc8254610ff9565b601f8111610302575b506000601f8611600114610279579185807ff743a5a3debae421fad85b3594f6553d3f2095c46d90d080de66b01736c0da56979695936102699560009361026e575b501b906000198760031b1c19161790555b604051938385948552840191611033565b0390a2005b85013592508a610247565b601f1986169083600052856000209160005b8181106102ed57509187969593917ff743a5a3debae421fad85b3594f6553d3f2095c46d90d080de66b01736c0da56986102699694106102d3575b505085811b019055610258565b840135600019600389901b60f8161c1916905588806102c6565b8683013584559284019291870191870161028b565b8260005284600020601f870160051c810191868810610341575b601f0160051c019082905b828110610335575050610205565b60008155018290610327565b909150819061031c565b634e487b7160e01b600052604160045260246000fd5b6040516316466a3360e01b8152600490fd5b634e487b7160e01b600052602160045260246000fd5b346101665760403660031901126101665761012a6004356103a8610f6a565b908060005260006020526103c36001604060002001546110bc565b611294565b3461016657610100366003190112610166576001600160401b036064351660643503610166576001600160401b0360843516608435036101665761040a610f9a565b60c4356001600160401b03811161016657610429903690600401610fb0565b9190600660e43510156101665761043e611054565b600435156107b557602435156107a357604435156107a35760443560243514610791576000600160e435141580610781575b818161076e575b5061075c576001600160401b036064351615801561073c575b61072a576001600160401b03608435166001600160401b038416106107185760043560005260016020526040600020906104c982611309565b61037357600381015490600660ff831610156103735760ff821660ff60e43516106107065760043581556024356001820155604435600282015560843560501b67ffffffffffffffff60501b1661ff01600160d01b031990921660e43560ff161760643560101b69ffffffffffffffff0000161791909117609084901b67ffffffffffffffff60901b161760038201556007016001600160401b03841161034b576105748154610ff9565b601f81116106be575b50836000601f821160011461062557927fbfa6dfd7f39b0a5ede669b5be24cf4358f189fb5c5a6d25f5929d9760b8aaf8d9492610269926001600160401b039560009161061a575b508760011b906000198960031b1c19161790555b6040519384936105eb8560e435610f80565b816064351660208601528160843516604086015216606084015260a060808401526004359560a0840191611033565b9050820135886105c5565b60008381526020812092508690601f198216905b8181106106a35750926001600160401b0395927fbfa6dfd7f39b0a5ede669b5be24cf4358f189fb5c5a6d25f5929d9760b8aaf8d9795926102699510610689575b5050600187811b0190556105d9565b83013560001960038a901b60f8161c19169055878061067a565b86840135855560019094019360209384019389935001610639565b816000526020600020601f860160051c810191602087106106fc575b601f0160051c01905b8181106106f0575061057d565b600081556001016106e3565b90915081906106da565b60405163a6532e5d60e01b8152600490fd5b604051632f946b0d60e21b8152600490fd5b6040516308d3792360e11b8152600490fd5b506001600160401b03606435166001600160401b03608435161115610490565b6040516307a92f1960e51b8152600490fd5b905061037357600360e435141581610477565b50506000600260e4351415610470565b604051632dd19d8560e21b8152600490fd5b6040516350a2e21f60e11b8152600490fd5b60405163f13124d760e01b8152600490fd5b346101665760e03660031901126101665760036024351015610166576001600160401b036044351660443503610166576107ff610f9a565b60c4356001600160401b0381116101665761081e903690600401610fb0565b90610827611054565b6004356000526001602052604060002060038101549060ff8216600681101561037357156103615761085881611309565b6000946001602435141580610aae575b610a9c576001600160401b0316946001600160401b038360501c168610610a8a576103735761ffff1990911660243560081b61ff0016176004908117600383015581018054606435600684015560843560058401556fffffffffffffffffffffffffffffffff191660443560401b6fffffffffffffffff0000000000000000161785179055600701926001600160401b03831161034b576109098454610ff9565b601f8111610a42575b50600093601f84116001146109bc57837f83c545cbc8964acfa83abcf2b9cecc7d8d01b137a63866908f784c10e5c90d1794956000916109b1575b508560011b906000198760031b1c19161790555b61026960405192839261097684602435610f8d565b6001600160401b0360443516602085015260408401526084356060840152606435608084015260c060a08401526004359560c0840191611033565b90508301358661094d565b601f198416948160005260206000209060005b878110610a2a5750857f83c545cbc8964acfa83abcf2b9cecc7d8d01b137a63866908f784c10e5c90d17969710610a10575b5050600185811b019055610961565b840135600019600388901b60f8161c191690558580610a01565b909160206001819285890135815501930191016109cf565b846000526020600020601f850160051c81019160208610610a80575b601f0160051c01905b818110610a745750610912565b60008155600101610a67565b9091508190610a5e565b604051635f98281b60e01b8152600490fd5b6040516393a5f3c760e01b8152600490fd5b506000955060243560021415610868565b3461016657600036600319011261016657602060405160008152f35b3461016657604036600319011261016657610af4610f6a565b600435600052600060205260406000209060018060a01b0316600052602052602060ff604060002054166040519015158152f35b34610166576020366003190112610166576060610180604051610b4a81610fdd565b60008152600060208201526000604082015260008382015260006080820152600060a0820152600060c0820152600060e0820152600061010082015260006101208201526000610140820152600061016082015201526004356000526001602052604060002060405190610bbd82610fdd565b805482526001810154602083015260028101546040830152600381015460ff81166006811015610373576060840152600360ff8260081c161015610373578060ff6001600160401b039260081c166080850152818160101c1660a0850152818160501c1660c085015260901c1660e08301526001600160401b03600482015481811661010085015260401c166101208301526005810154610140830152600681015461016083015260405190600090600781015490610c7b82610ff9565b8085529160018116908115610e1b5750600114610ddd575b50506001600160401b03828203601f01601f191683019081119083111761034b57601f8281199203011681016040526101808201526101806040519160208352805160208401526020810151604084015260408101516060840152610d0060608201516080850190610f80565b610d12608082015160a0850190610f8d565b6001600160401b0360a08201511660c08401526001600160401b0360c08201511660e08401526001600160401b0360e0820151166101008401526001600160401b03610100820151166101208401526001600160401b03610120820151166101408401526101408101516101608401526101608101518284015201516101a080830152805190816101c084015260005b828110610dc6575050816101e0916000838284010152601f80199101168101030190f35b8060208092840101516101e0828701015201610da2565b60079192500160005260206000206000905b828210610e055750602091508201018380610c93565b6001816020925483858801015201910190610def565b9150506020925060ff191682840152151560051b8201018380610c93565b3461016657600036600319011261016657602060405160008051602061134f8339815191528152f35b3461016657604036600319011261016657610e7b610f6a565b336001600160a01b03821603610e975761012a90600435611294565b60405163334bd91960e11b8152600490fd5b346101665760403660031901126101665761012a600435610ec8610f6a565b90806000526000602052610ee36001604060002001546110bc565b611182565b346101665760203660031901126101665760043560005260006020526020600160406000200154604051908152f35b34610166576020366003190112610166576004359063ffffffff60e01b821680920361016657602091637965db0b60e01b8114908115610f59575b5015158152f35b6301ffc9a760e01b14905083610f52565b602435906001600160a01b038216820361016657565b9060068210156103735752565b9060038210156103735752565b60a435906001600160401b038216820361016657565b9181601f84011215610166578235916001600160401b038311610166576020838186019501011161016657565b6101a081019081106001600160401b0382111761034b57604052565b90600182811c92168015611029575b602083101461101357565b634e487b7160e01b600052602260045260246000fd5b91607f1691611008565b908060209392818452848401376000828201840152601f01601f1916010190565b3360009081527f4cc0a64818843a39e4cd2f1885e814e78757c2ef3df4dd05f82735613da08b11602052604090205460008051602061134f8339815191529060ff161561109e5750565b6044906040519063e2517d3f60e01b82523360048301526024820152fd5b80600052600060205260406000203360005260205260ff604060002054161561109e5750565b6001600160a01b031660008181527f4cc0a64818843a39e4cd2f1885e814e78757c2ef3df4dd05f82735613da08b11602052604081205490919060008051602061134f8339815191529060ff1661117d57808352826020526040832082845260205260408320600160ff198254161790557f2f8788117e7eff1d82e926ec794901d17c78024a50270940304540a733656f0d339380a4600190565b505090565b9060009180835282602052604083209160018060a01b03169182845260205260ff6040842054161560001461117d57808352826020526040832082845260205260408320600160ff198254161790557f2f8788117e7eff1d82e926ec794901d17c78024a50270940304540a733656f0d339380a4600190565b6001600160a01b031660008181527f4cc0a64818843a39e4cd2f1885e814e78757c2ef3df4dd05f82735613da08b11602052604081205490919060008051602061134f8339815191529060ff161561117d5780835282602052604083208284526020526040832060ff1981541690557ff6391f5c32d9c69d2a47ea670b442974b53935d1edc7fd64eb21e047a839171b339380a4600190565b9060009180835282602052604083209160018060a01b03169182845260205260ff60408420541660001461117d5780835282602052604083208284526020526040832060ff1981541690557ff6391f5c32d9c69d2a47ea670b442974b53935d1edc7fd64eb21e047a839171b339380a4600190565b6003015460ff166006811015610373576004811461133c5760051461132a57565b604051632c91938f60e21b8152600490fd5b604051632f5a2d3d60e21b8152600490fdfe3204c940063673962b481a0395619b3dbbd137589c419e993978c1c71bcf68eca2646970667358221220ee75253a9e44eedaa1d8be2d4db2e516ca2f1a494248731b07c046588e0320b464736f6c634300081800332f8788117e7eff1d82e926ec794901d17c78024a50270940304540a733656f0d",
  "linkReferences": {},
  "deployedLinkReferences": {}
}