{
  "_format": "hh-sol-artifact-1",
  "contractName": "GoldClob",
  "sourceName": "contracts/GoldClob.sol",
  "abi": [
    {
      "inputs": [
        {
          "internalType": "address",
          "name": "admin",
          "type": "address"
        },
        {
          "internalType": "address",
          "name": "marketOperator",
          "type": "address"
        },
        {
          "internalType": "address",
          "name": "oracle",
          "type": "address"
        },
        {
          "internalType": "address",
          "name": "treasury_",
          "type": "address"
        },
        {
          "internalType": "address",
          "name": "marketMaker_",
          "type": "address"
        }
      ],
      "stateMutability": "nonpayable",
      "type": "constructor"
    },
    {
      "inputs": [],
      "name": "AccessControlBadConfirmation",
      "type": "error"
    },
    {
      "inputs": [
        {
          "internalType": "address",
          "name": "account",
          "type": "address"
        },
        {
          "internalType": "bytes32",
          "name": "neededRole",
          "type": "bytes32"
        }
      ],
      "name": "AccessControlUnauthorizedAccount",
      "type": "error"
    },
    {
      "inputs": [],
      "name": "AlreadyFilled",
      "type": "error"
    },
    {
      "inputs": [],
      "name": "BettingClosed",
      "type": "error"
    },
    {
      "inputs": [],
      "name": "CostTooLow",
      "type": "error"
    },
    {
      "inputs": [],
      "name": "DuelNotMarketable",
      "type": "error"
    },
    {
      "inputs": [],
      "name": "FailedCall",
      "type": "error"
    },
    {
      "inputs": [
        {
          "internalType": "uint256",
          "name": "balance",
          "type": "uint256"
        },
        {
          "internalType": "uint256",
          "name": "needed",
          "type": "uint256"
        }
      ],
      "name": "InsufficientBalance",
      "type": "error"
    },
    {
      "inputs": [],
      "name": "InsufficientNativeValue",
      "type": "error"
    },
    {
      "inputs": [],
      "name": "InvalidAdmin",
      "type": "error"
    },
    {
      "inputs": [],
      "name": "InvalidAmountShape",
      "type": "error"
    },
    {
      "inputs": [],
      "name": "InvalidMarketKind",
      "type": "error"
    },
    {
      "inputs": [],
      "name": "InvalidMarketMaker",
      "type": "error"
    },
    {
      "inputs": [],
      "name": "InvalidOperator",
      "type": "error"
    },
    {
      "inputs": [],
      "name": "InvalidOracle",
      "type": "error"
    },
    {
      "inputs": [],
      "name": "InvalidPrice",
      "type": "error"
    },
    {
      "inputs": [],
      "name": "InvalidSide",
      "type": "error"
    },
    {
      "inputs": [],
      "name": "InvalidTreasury",
      "type": "error"
    },
    {
      "inputs": [],
      "name": "MarketExists",
      "type": "error"
    },
    {
      "inputs": [],
      "name": "MarketMakerFeeTooHigh",
      "type": "error"
    },
    {
      "inputs": [],
      "name": "MarketMissing",
      "type": "error"
    },
    {
      "inputs": [],
      "name": "MarketNotOpen",
      "type": "error"
    },
    {
      "inputs": [],
      "name": "MarketNotSettled",
      "type": "error"
    },
    {
      "inputs": [],
      "name": "NotMaker",
      "type": "error"
    },
    {
      "inputs": [],
      "name": "NothingToClaim",
      "type": "error"
    },
    {
      "inputs": [],
      "name": "OrderInactive",
      "type": "error"
    },
    {
      "inputs": [],
      "name": "ReentrancyGuardReentrantCall",
      "type": "error"
    },
    {
      "inputs": [],
      "name": "TotalTradeFeeTooHigh",
      "type": "error"
    },
    {
      "inputs": [],
      "name": "TreasuryFeeTooHigh",
      "type": "error"
    },
    {
      "inputs": [],
      "name": "WinningsFeeTooHigh",
      "type": "error"
    },
    {
      "anonymous": false,
      "inputs": [
        {
          "indexed": false,
          "internalType": "uint256",
          "name": "tradeTreasuryFeeBps",
          "type": "uint256"
        },
        {
          "indexed": false,
          "internalType": "uint256",
          "name": "tradeMarketMakerFeeBps",
          "type": "uint256"
        },
        {
          "indexed": false,
          "internalType": "uint256",
          "name": "winningsMarketMakerFeeBps",
          "type": "uint256"
        }
      ],
      "name": "FeeConfigUpdated",
      "type": "event"
    },
    {
      "anonymous": false,
      "inputs": [
        {
          "indexed": true,
          "internalType": "bytes32",
          "name": "duelKey",
          "type": "bytes32"
        },
        {
          "indexed": true,
          "internalType": "bytes32",
          "name": "marketKey",
          "type": "bytes32"
        },
        {
          "indexed": false,
          "internalType": "uint8",
          "name": "marketKind",
          "type": "uint8"
        }
      ],
      "name": "MarketCreated",
      "type": "event"
    },
    {
      "anonymous": false,
      "inputs": [
        {
          "indexed": false,
          "internalType": "address",
          "name": "marketMaker",
          "type": "address"
        }
      ],
      "name": "MarketMakerUpdated",
      "type": "event"
    },
    {
      "anonymous": false,
      "inputs": [
        {
          "indexed": true,
          "internalType": "bytes32",
          "name": "duelKey",
          "type": "bytes32"
        },
        {
          "indexed": true,
          "internalType": "bytes32",
          "name": "marketKey",
          "type": "bytes32"
        },
        {
          "indexed": false,
          "internalType": "enum GoldClob.MarketStatus",
          "name": "status",
          "type": "uint8"
        },
        {
          "indexed": false,
          "internalType": "enum GoldClob.Side",
          "name": "winner",
          "type": "uint8"
        }
      ],
      "name": "MarketSynced",
      "type": "event"
    },
    {
      "anonymous": false,
      "inputs": [
        {
          "indexed": false,
          "internalType": "address",
          "name": "oracle",
          "type": "address"
        }
      ],
      "name": "OracleUpdated",
      "type": "event"
    },
    {
      "anonymous": false,
      "inputs": [
        {
          "indexed": true,
          "internalType": "bytes32",
          "name": "marketKey",
          "type": "bytes32"
        },
        {
          "indexed": true,
          "internalType": "uint64",
          "name": "orderId",
          "type": "uint64"
        }
      ],
      "name": "OrderCancelled",
      "type": "event"
    },
    {
      "anonymous": false,
      "inputs": [
        {
          "indexed": true,
          "internalType": "bytes32",
          "name": "marketKey",
          "type": "bytes32"
        },
        {
          "indexed": false,
          "internalType": "uint64",
          "name": "makerOrderId",
          "type": "uint64"
        },
        {
          "indexed": false,
          "internalType": "uint64",
          "name": "takerOrderId",
          "type": "uint64"
        },
        {
          "indexed": false,
          "internalType": "uint256",
          "name": "matchedAmount",
          "type": "uint256"
        },
        {
          "indexed": false,
          "internalType": "uint16",
          "name": "price",
          "type": "uint16"
        }
      ],
      "name": "OrderMatched",
      "type": "event"
    },
    {
      "anonymous": false,
      "inputs": [
        {
          "indexed": true,
          "internalType": "bytes32",
          "name": "marketKey",
          "type": "bytes32"
        },
        {
          "indexed": true,
          "internalType": "uint64",
          "name": "orderId",
          "type": "uint64"
        },
        {
          "indexed": true,
          "internalType": "address",
          "name": "maker",
          "type": "address"
        },
        {
          "indexed": false,
          "internalType": "uint8",
          "name": "side",
          "type": "uint8"
        },
        {
          "indexed": false,
          "internalType": "uint16",
          "name": "price",
          "type": "uint16"
        },
        {
          "indexed": false,
          "internalType": "uint256",
          "name": "amount",
          "type": "uint256"
        }
      ],
      "name": "OrderPlaced",
      "type": "event"
    },
    {
      "anonymous": false,
      "inputs": [
        {
          "indexed": true,
          "internalType": "bytes32",
          "name": "role",
          "type": "bytes32"
        },
        {
          "indexed": true,
          "internalType": "bytes32",
          "name": "previousAdminRole",
          "type": "bytes32"
        },
        {
          "indexed": true,
          "internalType": "bytes32",
          "name": "newAdminRole",
          "type": "bytes32"
        }
      ],
      "name": "RoleAdminChanged",
      "type": "event"
    },
    {
      "anonymous": false,
      "inputs": [
        {
          "indexed": true,
          "internalType": "bytes32",
          "name": "role",
          "type": "bytes32"
        },
        {
          "indexed": true,
          "internalType": "address",
          "name": "account",
          "type": "address"
        },
        {
          "indexed": true,
          "internalType": "address",
          "name": "sender",
          "type": "address"
        }
      ],
      "name": "RoleGranted",
      "type": "event"
    },
    {
      "anonymous": false,
      "inputs": [
        {
          "indexed": true,
          "internalType": "bytes32",
          "name": "role",
          "type": "bytes32"
        },
        {
          "indexed": true,
          "internalType": "address",
          "name": "account",
          "type": "address"
        },
        {
          "indexed": true,
          "internalType": "address",
          "name": "sender",
          "type": "address"
        }
      ],
      "name": "RoleRevoked",
      "type": "event"
    },
    {
      "anonymous": false,
      "inputs": [
        {
          "indexed": false,
          "internalType": "address",
          "name": "treasury",
          "type": "address"
        }
      ],
      "name": "TreasuryUpdated",
      "type": "event"
    },
    {
      "inputs": [],
      "name": "DEFAULT_ADMIN_ROLE",
      "outputs": [
        {
          "internalType": "bytes32",
          "name": "",
          "type": "bytes32"
        }
      ],
      "stateMutability": "view",
      "type": "function"
    },
    {
      "inputs": [],
      "name": "MARKET_KIND_DUEL_WINNER",
      "outputs": [
        {
          "internalType": "uint8",
          "name": "",
          "type": "uint8"
        }
      ],
      "stateMutability": "view",
      "type": "function"
    },
    {
      "inputs": [],
      "name": "MARKET_OPERATOR_ROLE",
      "outputs": [
        {
          "internalType": "bytes32",
          "name": "",
          "type": "bytes32"
        }
      ],
      "stateMutability": "view",
      "type": "function"
    },
    {
      "inputs": [],
      "name": "MAX_FEE_BPS",
      "outputs": [
        {
          "internalType": "uint256",
          "name": "",
          "type": "uint256"
        }
      ],
      "stateMutability": "view",
      "type": "function"
    },
    {
      "inputs": [
        {
          "internalType": "bytes32",
          "name": "duelKey",
          "type": "bytes32"
        },
        {
          "internalType": "uint8",
          "name": "marketKind",
          "type": "uint8"
        },
        {
          "internalType": "uint64",
          "name": "orderId",
          "type": "uint64"
        }
      ],
      "name": "cancelOrder",
      "outputs": [],
      "stateMutability": "nonpayable",
      "type": "function"
    },
    {
      "inputs": [
        {
          "internalType": "bytes32",
          "name": "duelKey",
          "type": "bytes32"
        },
        {
          "internalType": "uint8",
          "name": "marketKind",
          "type": "uint8"
        }
      ],
      "name": "claim",
      "outputs": [],
      "stateMutability": "nonpayable",
      "type": "function"
    },
    {
      "inputs": [
        {
          "internalType": "bytes32",
          "name": "duelKey",
          "type": "bytes32"
        },
        {
          "internalType": "uint8",
          "name": "marketKind",
          "type": "uint8"
        }
      ],
      "name": "createMarketForDuel",
      "outputs": [
        {
          "internalType": "bytes32",
          "name": "key",
          "type": "bytes32"
        }
      ],
      "stateMutability": "nonpayable",
      "type": "function"
    },
    {
      "inputs": [],
      "name": "duelOracle",
      "outputs": [
        {
          "internalType": "contract DuelOutcomeOracle",
          "name": "",
          "type": "address"
        }
      ],
      "stateMutability": "view",
      "type": "function"
    },
    {
      "inputs": [],
      "name": "feeBps",
      "outputs": [
        {
          "internalType": "uint256",
          "name": "",
          "type": "uint256"
        }
      ],
      "stateMutability": "view",
      "type": "function"
    },
    {
      "inputs": [
        {
          "internalType": "bytes32",
          "name": "duelKey",
          "type": "bytes32"
        },
        {
          "internalType": "uint8",
          "name": "marketKind",
          "type": "uint8"
        }
      ],
      "name": "getMarket",
      "outputs": [
        {
          "components": [
            {
              "internalType": "bool",
              "name": "exists",
              "type": "bool"
            },
            {
              "internalType": "bytes32",
              "name": "duelKey",
              "type": "bytes32"
            },
            {
              "internalType": "enum GoldClob.MarketStatus",
              "name": "status",
              "type": "uint8"
            },
            {
              "internalType": "enum GoldClob.Side",
              "name": "winner",
              "type": "uint8"
            },
            {
              "internalType": "uint64",
              "name": "nextOrderId",
              "type": "uint64"
            },
            {
              "internalType": "uint16",
              "name": "bestBid",
              "type": "uint16"
            },
            {
              "internalType": "uint16",
              "name": "bestAsk",
              "type": "uint16"
            },
            {
              "internalType": "uint128",
              "name": "totalAShares",
              "type": "uint128"
            },
            {
              "internalType": "uint128",
              "name": "totalBShares",
              "type": "uint128"
            }
          ],
          "internalType": "struct GoldClob.Market",
          "name": "",
          "type": "tuple"
        }
      ],
      "stateMutability": "view",
      "type": "function"
    },
    {
      "inputs": [
        {
          "internalType": "bytes32",
          "name": "duelKey",
          "type": "bytes32"
        },
        {
          "internalType": "uint8",
          "name": "marketKind",
          "type": "uint8"
        },
        {
          "internalType": "uint8",
          "name": "side",
          "type": "uint8"
        },
        {
          "internalType": "uint16",
          "name": "price",
          "type": "uint16"
        }
      ],
      "name": "getPriceLevel",
      "outputs": [
        {
          "internalType": "uint64",
          "name": "headOrderId",
          "type": "uint64"
        },
        {
          "internalType": "uint64",
          "name": "tailOrderId",
          "type": "uint64"
        },
        {
          "internalType": "uint128",
          "name": "totalOpen",
          "type": "uint128"
        }
      ],
      "stateMutability": "view",
      "type": "function"
    },
    {
      "inputs": [
        {
          "internalType": "bytes32",
          "name": "role",
          "type": "bytes32"
        }
      ],
      "name": "getRoleAdmin",
      "outputs": [
        {
          "internalType": "bytes32",
          "name": "",
          "type": "bytes32"
        }
      ],
      "stateMutability": "view",
      "type": "function"
    },
    {
      "inputs": [
        {
          "internalType": "bytes32",
          "name": "role",
          "type": "bytes32"
        },
        {
          "internalType": "address",
          "name": "account",
          "type": "address"
        }
      ],
      "name": "grantRole",
      "outputs": [],
      "stateMutability": "nonpayable",
      "type": "function"
    },
    {
      "inputs": [
        {
          "internalType": "bytes32",
          "name": "role",
          "type": "bytes32"
        },
        {
          "internalType": "address",
          "name": "account",
          "type": "address"
        }
      ],
      "name": "hasRole",
      "outputs": [
        {
          "internalType": "bool",
          "name": "",
          "type": "bool"
        }
      ],
      "stateMutability": "view",
      "type": "function"
    },
    {
      "inputs": [
        {
          "internalType": "bytes32",
          "name": "duelKey",
          "type": "bytes32"
        },
        {
          "internalType": "uint8",
          "name": "marketKind",
          "type": "uint8"
        }
      ],
      "name": "marketKey",
      "outputs": [
        {
          "internalType": "bytes32",
          "name": "",
          "type": "bytes32"
        }
      ],
      "stateMutability": "pure",
      "type": "function"
    },
    {
      "inputs": [],
      "name": "marketMaker",
      "outputs": [
        {
          "internalType": "address",
          "name": "",
          "type": "address"
        }
      ],
      "stateMutability": "view",
      "type": "function"
    },
    {
      "inputs": [
        {
          "internalType": "bytes32",
          "name": "",
          "type": "bytes32"
        },
        {
          "internalType": "uint64",
          "name": "",
          "type": "uint64"
        }
      ],
      "name": "orders",
      "outputs": [
        {
          "internalType": "uint64",
          "name": "id",
          "type": "uint64"
        },
        {
          "internalType": "uint8",
          "name": "side",
          "type": "uint8"
        },
        {
          "internalType": "uint16",
          "name": "price",
          "type": "uint16"
        },
        {
          "internalType": "address",
          "name": "maker",
          "type": "address"
        },
        {
          "internalType": "uint128",
          "name": "amount",
          "type": "uint128"
        },
        {
          "internalType": "uint128",
          "name": "filled",
          "type": "uint128"
        },
        {
          "internalType": "uint64",
          "name": "prevOrderId",
          "type": "uint64"
        },
        {
          "internalType": "uint64",
          "name": "nextOrderId",
          "type": "uint64"
        },
        {
          "internalType": "bool",
          "name": "active",
          "type": "bool"
        }
      ],
      "stateMutability": "view",
      "type": "function"
    },
    {
      "inputs": [
        {
          "internalType": "bytes32",
          "name": "duelKey",
          "type": "bytes32"
        },
        {
          "internalType": "uint8",
          "name": "marketKind",
          "type": "uint8"
        },
        {
          "internalType": "uint8",
          "name": "side",
          "type": "uint8"
        },
        {
          "internalType": "uint16",
          "name": "price",
          "type": "uint16"
        },
        {
          "internalType": "uint128",
          "name": "amount",
          "type": "uint128"
        }
      ],
      "name": "placeOrder",
      "outputs": [],
      "stateMutability": "payable",
      "type": "function"
    },
    {
      "inputs": [
        {
          "internalType": "bytes32",
          "name": "",
          "type": "bytes32"
        },
        {
          "internalType": "address",
          "name": "",
          "type": "address"
        }
      ],
      "name": "positions",
      "outputs": [
        {
          "internalType": "uint128",
          "name": "aShares",
          "type": "uint128"
        },
        {
          "internalType": "uint128",
          "name": "bShares",
          "type": "uint128"
        },
        {
          "internalType": "uint128",
          "name": "aStake",
          "type": "uint128"
        },
        {
          "internalType": "uint128",
          "name": "bStake",
          "type": "uint128"
        }
      ],
      "stateMutability": "view",
      "type": "function"
    },
    {
      "inputs": [
        {
          "internalType": "bytes32",
          "name": "role",
          "type": "bytes32"
        },
        {
          "internalType": "address",
          "name": "callerConfirmation",
          "type": "address"
        }
      ],
      "name": "renounceRole",
      "outputs": [],
      "stateMutability": "nonpayable",
      "type": "function"
    },
    {
      "inputs": [
        {
          "internalType": "bytes32",
          "name": "role",
          "type": "bytes32"
        },
        {
          "internalType": "address",
          "name": "account",
          "type": "address"
        }
      ],
      "name": "revokeRole",
      "outputs": [],
      "stateMutability": "nonpayable",
      "type": "function"
    },
    {
      "inputs": [
        {
          "internalType": "uint256",
          "name": "tradeTreasuryFeeBps_",
          "type": "uint256"
        },
        {
          "internalType": "uint256",
          "name": "tradeMarketMakerFeeBps_",
          "type": "uint256"
        },
        {
          "internalType": "uint256",
          "name": "winningsMarketMakerFeeBps_",
          "type": "uint256"
        }
      ],
      "name": "setFeeConfig",
      "outputs": [],
      "stateMutability": "nonpayable",
      "type": "function"
    },
    {
      "inputs": [
        {
          "internalType": "address",
          "name": "marketMaker_",
          "type": "address"
        }
      ],
      "name": "setMarketMaker",
      "outputs": [],
      "stateMutability": "nonpayable",
      "type": "function"
    },
    {
      "inputs": [
        {
          "internalType": "address",
          "name": "oracle",
          "type": "address"
        }
      ],
      "name": "setOracle",
      "outputs": [],
      "stateMutability": "nonpayable",
      "type": "function"
    },
    {
      "inputs": [
        {
          "internalType": "address",
          "name": "treasury_",
          "type": "address"
        }
      ],
      "name": "setTreasury",
      "outputs": [],
      "stateMutability": "nonpayable",
      "type": "function"
    },
    {
      "inputs": [
        {
          "internalType": "bytes4",
          "name": "interfaceId",
          "type": "bytes4"
        }
      ],
      "name": "supportsInterface",
      "outputs": [
        {
          "internalType": "bool",
          "name": "",
          "type": "bool"
        }
      ],
      "stateMutability": "view",
      "type": "function"
    },
    {
      "inputs": [
        {
          "internalType": "bytes32",
          "name": "duelKey",
          "type": "bytes32"
        },
        {
          "internalType": "uint8",
          "name": "marketKind",
          "type": "uint8"
        }
      ],
      "name": "syncMarketFromOracle",
      "outputs": [
        {
          "internalType": "enum GoldClob.MarketStatus",
          "name": "",
          "type": "uint8"
        }
      ],
      "stateMutability": "nonpayable",
      "type": "function"
    },
    {
      "inputs": [],
      "name": "tradeMarketMakerFeeBps",
      "outputs": [
        {
          "internalType": "uint256",
          "name": "",
          "type": "uint256"
        }
      ],
      "stateMutability": "view",
      "type": "function"
    },
    {
      "inputs": [],
      "name": "tradeTreasuryFeeBps",
      "outputs": [
        {
          "internalType": "uint256",
          "name": "",
          "type": "uint256"
        }
      ],
      "stateMutability": "view",
      "type": "function"
    },
    {
      "inputs": [],
      "name": "treasury",
      "outputs": [
        {
          "internalType": "address",
          "name": "",
          "type": "address"
        }
      ],
      "stateMutability": "view",
      "type": "function"
    },
    {
      "inputs": [],
      "name": "winningsMarketMakerFeeBps",
      "outputs": [
        {
          "internalType": "uint256",
          "name": "",
          "type": "uint256"
        }
      ],
      "stateMutability": "view",
      "type": "function"
    },
    {
      "stateMutability": "payable",
      "type": "receive"
    }
  ],
  "bytecode": "0x608034620001cb57601f6200354638819003918201601f191683019291906001600160401b03841183851017620001d0578160a09284926040968752833981010312620001cb576200005181620001e6565b906200006060208201620001e6565b6200006d848301620001e6565b906200008a60806200008260608601620001e6565b9401620001e6565b60017f9b779b17422d0df92223018b32b4d1fa46e071723d6817e2486d003becc55f0055916001600160a01b039085821615620001ba5781831615620001a957811693841562000198578116928315620001875716938415620001765790620000f7620000fe92620001fb565b506200027b565b5060018060a01b03199182600154161760015581600254161760025560035416176003556064600455606460055560c86006557f7db0317b48d5cfa60fe5406abab969900e8dfb1ecbe177a05af0595780cb85c760608251606481526064602082015260c884820152a15161320890816200031e8239f35b85516309bfcb9b60e31b8152600490fd5b86516302979eb960e31b8152600490fd5b8651639589a27d60e01b8152600490fd5b865163ccea9e6f60e01b8152600490fd5b8651630b5eba9f60e41b8152600490fd5b600080fd5b634e487b7160e01b600052604160045260246000fd5b51906001600160a01b0382168203620001cb57565b6001600160a01b031660008181527fad3228b676f7d3cd4284a5443f17f1962b36e491b30a40b2405849e597ba5fb5602052604081205490919060ff166200027757818052816020526040822081835260205260408220600160ff198254161790553391600080516020620035268339815191528180a4600190565b5090565b6001600160a01b031660008181527ff8b35491593017269a07a75796790700662274e03a89ab6c02b45670c6b0142f60205260408120549091907f55049dd3b89514f54f939cb6b3d0bd764d192f30d61ca6964b2cacf4a9134af19060ff166200031857808352826020526040832082845260205260408320600160ff1982541617905560008051602062003526833981519152339380a4600190565b50509056fe608080604052600436101561001d575b50361561001b57600080fd5b005b60003560e01c90816301ffc9a714612456575080630e997a951461241b5780631c5c123f1461229a5780631f21f9af146122715780631fc6f9ad1461219c578063248a9ca31461216d57806324a9d8531461214b57806329d88594146120db5780632ebe714f146120bd5780632f2ff15d1461207e57806336568abe14612037578063373d26c114610dd457806355c386d914610bc557806359b0fd5b14610b9c57806361d027b314610b7357806363b5dda814610ae95780637adbf97314610a66578063830be33814610a4857806385489dc814610a2a57806386bf46d5146109c157806391d14854146109dd578063a217fddf146109c1578063c005d3c114610993578063d547741f14610954578063d55be8c614610937578063d773b8a614610878578063e014f85a1461046b578063e949a7a114610436578063eebd2ec81461028a578063f0f44260146102075763f54c42d71461017f573861000f565b34610202576020366003190112610202576101986124df565b6101a06128ff565b6001600160a01b031680156101f0576020817fbd7ded5748332f5276eca17a39b337ddc2bd5c50500fbd6308d5d00f28dc275e926001600160601b0360a01b6003541617600355604051908152a1005b6040516309bfcb9b60e31b8152600490fd5b600080fd5b34610202576020366003190112610202576102206124df565b6102286128ff565b6001600160a01b03168015610278576020817f7dae230f18360d76a040c81f050aa14eb9d6dc7901b20fc5d855e2a20fe814d1926001600160601b0360a01b6002541617600255604051908152a1005b6040516302979eb960e31b8152600490fd5b34610202576040366003190112610202576102ee6102a66124a9565b60006101006040516102b78161254a565b8281528260208201528260408201528260608201528260808201528260a08201528260c08201528260e08201520152600435612751565b600052600760205260406000206040516103078161254a565b60ff8254161515815260018201546020820152600282015460ff811690600582101561042057610120936001600160801b036003928194604087015260ff8160081c1661035381612513565b60608701526001600160401b038160101c16608087015261ffff8160501c1660a087015261ffff8160601c1660c087015260701c1660e08501520154166101008201526001600160801b0361010060405192805115158452602081015160208501526103c760408201516040860190612506565b60608101516103d581612513565b60608501526001600160401b03608082015116608085015261ffff60a08201511660a085015261ffff60c08201511660c08501528260e08201511660e0850152015116610100820152f35b634e487b7160e01b600052602160045260246000fd5b3461020257604036600319011261020257602061045c6104546124a9565b6004356127a1565b6104696040518092612506565bf35b34610202576060366003190112610202576004356104876124a9565b90604435916001600160401b0390818416809403610202576104b1906104ab61283a565b83612751565b918260005260209060078252604060002060ff81541615610866576001546040516356c50e3f60e01b8152600481018490526001600160a01b039390916000908390602490829088165afa90811561085a5787849161051894600094610835575b50612a52565b508460005260098352604060002086600052835260406000209384549233908460581c160361082357600285019384549360ff8560801c16156108115760018701938454978860801c966001600160801b03809a1692838910156107ff578b61067a9761058a61069d9b60ff97612788565b9782600052600a81526040600020878960401c166000528152604060002061ffff809960481c166000528152604060002094828082169182156000146107d2575090508d5460401c166001600160401b03198654161785555b8c5490828260401c169081156000146107a157505050610606818d541685612711565b61063761061789865460801c612788565b85546001600160801b031660809190911b6001600160801b031916178555565b835490811615908115610795575b501561071757506000610669925582549084868360481c169260401c16908d612cc2565b54918260481c169160401c16612c21565b81546001600160801b038116951660801b6001600160801b031916949094179055565b805470ffffffffffffffffffffffffffffffffff1916905580610707575b507f02f7aad1d9ff3eed9205dd18dec0b3fd3eb56b6fc948899111fb74de3c3d021a600080a360017f9b779b17422d0df92223018b32b4d1fa46e071723d6817e2486d003becc55f0055005b610711903361287c565b826106bb565b6107709250600261072a61074b92612ffa565b9201805461ffff60501b191660509390931b61ffff60501b16929092178255565b6107548c61309c565b8086166107755750805461ffff60601b1916607d60631b179055565b610669565b90805461ffff60601b191660609290921b61ffff60601b16919091179055565b905060801c158f610645565b84600052600981526040600020916000525281600260406000200191166001600160401b0319825416179055610606565b6107fa928660005260098552604060002090600052845260401c166002604060002001612711565b6105e3565b6040516341a26a6360e01b8152600490fd5b60405163f08c50a160e01b8152600490fd5b60405163b331e42160e01b8152600490fd5b6108539194503d806000833e61084b818361257c565b8101906125b1565b928b610512565b6040513d6000823e3d90fd5b604051630b815cb760e31b8152600490fd5b34610202576040366003190112610202576024356001600160401b038082168092036102025761012091600435600052600960205260406000209060005260205260ff60406000208054926002600183015492015491604051948281168652848160401c16602087015261ffff8160481c16604087015260018060a01b039060581c1660608601526001600160801b038116608086015260801c60a085015280821660c08501528160401c1660e084015260801c161515610100820152f35b346102025760003660031901126102025760206040516127108152f35b346102025760403660031901126102025761001b6004356109736124c9565b9080600052600060205261098e600160406000200154612939565b6129dd565b346102025760403660031901126102025760206109b96109b16124a9565b600435612751565b604051908152f35b3461020257600036600319011261020257602060405160008152f35b34610202576040366003190112610202576109f66124c9565b600435600052600060205260406000209060018060a01b0316600052602052602060ff604060002054166040519015158152f35b34610202576000366003190112610202576020600454604051908152f35b34610202576000366003190112610202576020600654604051908152f35b3461020257602036600319011261020257610a7f6124df565b610a876128ff565b6001600160a01b03168015610ad7576020817f3df77beb5db05fcdd70a30fc8adf3f83f9501b68579455adbd100b8180940394926001600160601b0360a01b6001541617600155604051908152a1005b604051639589a27d60e01b8152600490fd5b3461020257608036600319011261020257610b026124a9565b610b0a6124b9565b610b1e610b156124f5565b92600435612751565b600052600a60205260ff6040600020911660005260205261ffff6040600020911660005260205260606040600020546001600160401b03906040519180821683528160401c16602083015260801c6040820152f35b34610202576000366003190112610202576002546040516001600160a01b039091168152602090f35b34610202576000366003190112610202576001546040516001600160a01b039091168152602090f35b3461020257604036600319011261020257600435610be16124a9565b3360009081527ff8b35491593017269a07a75796790700662274e03a89ab6c02b45670c6b0142f60205260409020547f55049dd3b89514f54f939cb6b3d0bd764d192f30d61ca6964b2cacf4a9134af19060ff1615610db6575060ff81169081610da457610c4f9083612751565b90816000526007602052604060002092835460ff8116610d92576001546040516356c50e3f60e01b81526004810184905290600090829060249082906001600160a01b03165afa801561085a57606091600091610d77575b50019081516006811015610420576002141580610d62575b610d505760019060ff19161785558160018601555193600685101561042057602084937f027fbf5134d9e462fa85d645784a66efdc7e1d0d0bc7ac2358a42fa4d1f484e392610d1c6002610d13859a612ba7565b92019182612739565b80546dffff0000ffffffffffffffff000019166d03e8000000000000000000010000179055604051908152a3604051908152f35b6040516383cc325560e01b8152600490fd5b50815160068110156104205760031415610cbf565b610d8c91503d806000833e61084b818361257c565b87610ca7565b604051638fc6f59b60e01b8152600490fd5b604051637df1e0e360e11b8152600490fd5b6044906040519063e2517d3f60e01b82523360048301526024820152fd5b60a036600319011261020257610de86124a9565b610df06124b9565b90610df96124f5565b906001600160801b03608435166084350361020257610e1661283a565b600160ff8416141580612029575b6120175761ffff8216158015612007575b611ff6576001600160801b0360843516158015611fdc575b611fca57610e5d90600435612751565b80600052600760205260406000209160ff83541615610866576001546040516356c50e3f60e01b8152600480359082015290600090829060249082906001600160a01b03165afa90811561085a57600091611faf575b50610ec2818585600435612a52565b600581101561042057600103611f9d5760c001516001600160401b0316421015611f8b5760028301546001600160401b036001818360101c160111611f755769ffffffffffffffff000060016001600160401b038360101c160160101b1669ffffffffffffffff0000198216176002850155610f77610f446084358488612c21565b612710610f536004548361252a565b04918291610f72612710610f696005548461252a565b0493849261251d565b61251d565b803410611f6357610f88903461253d565b9160ff8816600103611a9657610f9c612b31565b976001600160801b0360843516895261ffff600289015460601c1660208a01525b6001600160801b03895116151580611a80575b80611a6d575b80611a5c575b1561150f5786600052600a8060205260406000206002600052602052604060002061ffff60208c01511660005260205260406000209081546001600160401b03811615908115611503575b50611401575087600052600960205260406000206001600160401b038254166000526020528988888b8960406000209461107260018701546001600160801b038160801c9116612788565b9060ff600288015460801c161580156113f0575b6113d3576001977f3c2e56a62ff6ce3800b8f76e609b7475a9d5e23a3334eea26dca078622cbfc60956001600160401b0395611157611331956001600160801b03865116806001600160801b038316106000146113cb5750935b6111118c8e6110f5888284015460801c612b78565b9101906001600160801b0382549181199060801b169116179055565b6001600160801b036111268682895116612788565b16865261113785825460801c612788565b81546001600160801b031660809190911b6001600160801b031916179055565b88600052600360088060205260406000208d8060a01b038d5460581c166000526020526040600020908b6000526020526040600020336000526020526040600020906112056001600160801b036111b68861ffff60208c015116612beb565b16918f611137906111c7858b612788565b926111f96111d98c835460801c612b78565b82546001600160801b031660809190911b6001600160801b031916178255565b0191825460801c612b78565b8d8254926001600160801b0361121d89828716612b78565b166001600160801b03198095161781550190826001600160801b03611246845493828516612b78565b1691161790556112a8611269866001600160801b03600287015460701c16612b78565b6002850180546fffffffffffffffffffffffffffffffff60701b191660709290921b6fffffffffffffffffffffffffffffffff60701b16919091179055565b81830154906001600160801b036112c187828516612b78565b1691161791015561ffff602084015116908161ffff82161161138f575b505061ffff6020868a5416930151169160405195869560101c16908592936001600160801b03606093969561ffff9360808701986001600160401b03809216885216602087015216604085015216910152565b0390a201546001600160801b0381169060801c14611377575b61ffff600289015460601c1660208a015260ff61136c8160408c015116612b66565b1660408a0152610fbd565b61138a61ffff60208b0151168989612eff565b61134a565b61ffff6113a26103e8936113b293612b93565b166001600160801b03841661252a565b046113c26060840191825161251d565b9052388f6112de565b9050936110e0565b935050505061134a935061ffff9250602091500151168989612eff565b506001600160801b03821615611086565b905061148a60208b015161ffff8116928a600052602052604060002060026000526020526040600020836000526020526000604081205589600052600b6020526040600020600260005260205260ff6001611465828460081c166040600020612c9c565b929093161b1982548260031b1c169082549060031b91821b91600019901b1916179055565b61ffff60028a015460601c16146114bd5761ffff600289015460601c1660208a015260ff61136c8160408c015116612b66565b6114c68761309c565b61ffff81166114fa575061138a6103e85b60028a01805461ffff60601b191660609290921b61ffff60601b16919091179055565b61138a906114d7565b905060801c158c611027565b909296956060966117a499959395965b87516001600160801b0316156118a75761ffff906001600160801b038951169284600052600960205260406000206001600160401b038860101c166000526020526116d3604060002086600052600a602052604060002060ff891660005260205260406000208585166000526020526040600020906001600160401b038a60101c166001600160401b03198254161781556115cf89829060ff60401b82549160401b169060ff60401b1916179055565b8054600160581b600160f81b033360581b167fff00000000000000000000000000000000000000000000ffffffffffffffffff90911661ffff60481b604888901b16171781556001810180546001600160801b0319168817905581546002909101805470ff0000000000000000ffffffffffffffff1916604092831c6001600160401b0390811691909117600160801b1790915582549182901c1615611886575086600052600960205260406000206001600160401b03825460401c166000526020526116af6001600160401b038a60101c166002604060002001612711565b6116c56001600160401b038a60101c1682612711565b61113786825460801c612b78565b84600052600b602052604060002060ff871660005260205261172661170260ff8460081c166040600020612c9c565b815460001960039290921b91821b19811690821c600160ff88161b1790911b179055565b60ff8616600103611842578183600283015460501c1684821611611818575b50505b60ff6040519516855216602084015260408301527f5a591ce0e431a6e7eddf9e32593587de7e77303ee170c0d1bb3d590bc170020a876001600160401b03339560101c1693a45b806117fc575b50806117e0575b50015161251d565b806117d0575b60017f9b779b17422d0df92223018b32b4d1fa46e071723d6817e2486d003becc55f0055005b6117da903361287c565b806117aa565b6003546117f691906001600160a01b031661287c565b8461179c565b60025461181291906001600160a01b031661287c565b85611795565b600291909101805461ffff60501b191660509290921b61ffff60501b169190911790558c81611745565b818360028301548d1c168482161061185c575b5050611748565b600291909101805461ffff60601b191660609290921b61ffff60601b169190911790558c81611855565b67ffffffffffffffff191660108a901c6001600160401b03161781556116af565b604051949361ffff925060ff906118bd8761254a565b6001600160401b038660101c16875216602086015216604084015233878401526001600160801b036084351660808401526001600160801b036084351660a0840152600060c0840152600060e0840152600061010084015260005260096020526001600160401b0360406000209160101c1660005260205261010060406000209160026001600160401b03825116936001600160401b0319948582541617815561198360ff602085015116829060ff60401b82549160401b169060ff60401b1916179055565b604083015181546affff000000000000000000191660489190911b61ffff60481b161781558289015181547fff0000000000000000000000000000000000000000ffffffffffffffffffffff1660589190911b600160581b600160f81b031617815560808381015160a085015190911b6001600160801b0319166001600160801b039190911617600182015501926001600160401b0360c08301511690845416178355611a3d6001600160401b0360e08301511684612711565b0151815460ff60801b191690151560801b60ff60801b1617905561178f565b50606460ff60408b01511610610fdc565b506103e861ffff60208b01511610610fd6565b5061ffff861661ffff60208b0151161115610fd0565b611a9e612b31565b976001600160801b0360843516895261ffff69ffffffffffffffff000060016001600160401b038860101c160160101b1669ffffffffffffffff00001987161760501c1660208a01525b6001600160801b03895116151580611f4d575b80611f3c575b80611f2b575b15611f175786600052600a8060205260406000206001600052602052604060002061ffff60208c01511660005260205260406000209081546001600160401b03811615908115611f0b575b50611e45575087600052600960205260406000206001600160401b038254166000526020528988888b89604060002094611b9d60018701546001600160801b038160801c9116612788565b9060ff600288015460801c16158015611e34575b611e17576001977f3c2e56a62ff6ce3800b8f76e609b7475a9d5e23a3334eea26dca078622cbfc60956001600160401b0395611c1f611d8d956001600160801b03865116806001600160801b038316106000146113cb5750936111118c8e6110f5888284015460801c612b78565b88600052600383611ce96008806020528d60406000209060018060a01b03905460581c166000526020526040600020908d6000526020526040600020336000526020526111378f896001600160801b03611c868761ffff6020604060002095015116612beb565b1682611c928289612788565b956001600160801b03611ca982549a828c16612b78565b166001600160801b0319809a161781550190876001600160801b03611cd2845493828516612b78565b1691161790556111f96111d98b835460801c612b78565b611d06611269866001600160801b03600287015460701c16612b78565b81830154906001600160801b03611d1f87828516612b78565b1691161791015561ffff60208401511661ffff82168111611deb57505061ffff6020868a5416930151169160405195869560101c16908592936001600160801b03606093969561ffff9360808701986001600160401b03809216885216602087015216604085015216910152565b0390a201546001600160801b0381169060801c14611dd3575b61ffff600289015460501c1660208a015260ff611dc88160408c015116612b66565b1660408a0152611ae8565b611de661ffff60208b0151168989612dd8565b611da6565b61ffff6113a26103e893611dfe93612b93565b04611e0e6060840191825161251d565b90528e386112de565b9350505050611da6935061ffff9250602091500151168989612dd8565b506001600160801b03821615611bb1565b9050611ea960208b015161ffff8116928a600052602052604060002060016000526020526040600020836000526020526000604081205589600052600b6020526040600020600160005260205260ff6001611465828460081c166040600020612c9c565b61ffff60028a015460501c1614611edc5761ffff600289015460501c1660208a015260ff611dc88160408c015116612b66565b611de6611ee888612ffa565b60028a01805461ffff60501b191660509290921b61ffff60501b16919091179055565b905060801c158c611b52565b909296956060966117a4999593959661151f565b50606460ff60408b01511610611b07565b5061ffff60208a0151161515611b01565b5061ffff861661ffff60208b0151161015611afb565b604051631ac4c73760e11b8152600490fd5b634e487b7160e01b600052601160045260246000fd5b6040516330e2a62560e11b8152600490fd5b60405163300b4e3360e21b8152600490fd5b611fc491503d806000833e61084b818361257c565b85610eb3565b60405163d44d9d4360e01b8152600490fd5b506001600160801b036103e8816084351606161515610e4d565b60405162bfc92160e01b8152600490fd5b506103e861ffff83161015610e35565b6040516306fd144d60e11b8152600490fd5b50600260ff84161415610e24565b34610202576040366003190112610202576120506124c9565b336001600160a01b0382160361206c5761001b906004356129dd565b60405163334bd91960e11b8152600490fd5b346102025760403660031901126102025761001b60043561209d6124c9565b908060005260006020526120b8600160406000200154612939565b61295f565b34610202576000366003190112610202576020600554604051908152f35b34610202576040366003190112610202576120f46124c9565b600435600052600860205260406000209060018060a01b03166000526020526080604060002080549060016001600160801b0391015490604051928181168452841c602084015281166040830152821c6060820152f35b346102025760003660031901126102025760206109b96004546005549061251d565b346102025760203660031901126102025760043560005260006020526020600160406000200154604051908152f35b34610202576060366003190112610202576044356024356004356121be6128ff565b61271080821161225f5780831161224d57806121da848461251d565b1161223b578311612229577f7db0317b48d5cfa60fe5406abab969900e8dfb1ecbe177a05af0595780cb85c79260609282600455806005558160065560405192835260208301526040820152a1005b60405163cdae23d760e01b8152600490fd5b604051639de2f73760e01b8152600490fd5b60405163e851363160e01b8152600490fd5b6040516305b5c87760e31b8152600490fd5b34610202576000366003190112610202576003546040516001600160a01b039091168152602090f35b34610202576040366003190112610202576004356122b66124a9565b6122be61283a565b6122c88183612751565b9182600052600760205260406000209160ff83541615610866576122eb916127a1565b916000526008602052604060002033600052602052604060002091600581101561042057600381036123c7575060ff6002600192015460081c1661232e81612513565b036123b5576001600160801b03808254165b169081156123a3576117aa916123796123696127106123616006548561252a565b04809361253d565b6000808555600190940193909355565b80612387575b505b3361287c565b60035461239d91906001600160a01b031661287c565b8261237f565b6040516312d37ee560e31b8152600490fd5b6001600160801b03815460801c612340565b600414159050612409576123ec60018201546001600160801b038160801c911661251d565b80156123a35760008083556001909201919091556117aa90612381565b604051630ff84df760e11b8152600490fd5b346102025760003660031901126102025760206040517f55049dd3b89514f54f939cb6b3d0bd764d192f30d61ca6964b2cacf4a9134af18152f35b34610202576020366003190112610202576004359063ffffffff60e01b821680920361020257602091637965db0b60e01b8114908115612498575b5015158152f35b6301ffc9a760e01b14905083612491565b6024359060ff8216820361020257565b6044359060ff8216820361020257565b602435906001600160a01b038216820361020257565b600435906001600160a01b038216820361020257565b6064359061ffff8216820361020257565b9060058210156104205752565b6003111561042057565b91908201809211611f7557565b81810292918115918404141715611f7557565b91908203918211611f7557565b61012081019081106001600160401b0382111761256657604052565b634e487b7160e01b600052604160045260246000fd5b90601f801991011681019081106001600160401b0382111761256657604052565b51906001600160401b038216820361020257565b90602080838303126102025782516001600160401b03938482116102025701906101a093848385031261020257604051948501858110828211176125665760405282518552818301518286015260408301516040860152606083015160068110156102025760608601526080830151600381101561020257608086015261263a60a0840161259d565b60a086015261264b60c0840161259d565b60c086015261265c60e0840161259d565b60e086015261010061266f81850161259d565b9086015261012061268181850161259d565b9086015261014080840151908601526101608084015190860152610180928381015190828211610202570184601f8201121561020257805191821161256657604051946126d7601f8401601f191685018761257c565b8286528383830101116102025760005b8281106126fe575050906000918401015282015290565b81810184015186820185015283016126e7565b9067ffffffffffffffff60401b82549160401b169067ffffffffffffffff60401b1916179055565b9060058110156104205760ff80198354169116179055565b9060ff604051916020830193845216604082015260408152606081018181106001600160401b038211176125665760405251902090565b6001600160801b039182169082160391908211611f7557565b91906127ad9083612751565b916000928084526007602052604084209060ff82541615610866576001546040516356c50e3f60e01b81526004810185905293908690859060249082906001600160a01b03165afa93841561282f578661280f969795612812575b5050612a52565b90565b6128279295503d8091833e61084b818361257c565b923880612808565b6040513d88823e3d90fd5b7f9b779b17422d0df92223018b32b4d1fa46e071723d6817e2486d003becc55f00600281541461286a5760029055565b604051633ee5aeb560e01b8152600490fd5b8147106128e057604051602081018181106001600160401b0382111761256657604052600080809481948280955260018060a01b03165af1156128bc5750565b3d156128ce57604051903d90823e3d90fd5b60405163d6bda27560e01b8152600490fd5b60405163cf47918160e01b815247600482015260248101839052604490fd5b3360009081527fad3228b676f7d3cd4284a5443f17f1962b36e491b30a40b2405849e597ba5fb5602052604081205460ff1615610db65750565b80600052600060205260406000203360005260205260ff6040600020541615610db65750565b9060009180835282602052604083209160018060a01b03169182845260205260ff604084205416156000146129d857808352826020526040832082845260205260408320600160ff198254161790557f2f8788117e7eff1d82e926ec794901d17c78024a50270940304540a733656f0d339380a4600190565b505090565b9060009180835282602052604083209160018060a01b03169182845260205260ff6040842054166000146129d85780835282602052604083208284526020526040832060ff1981541690557ff6391f5c32d9c69d2a47ea670b442974b53935d1edc7fd64eb21e047a839171b339380a4600190565b929190916060810180516006811015610420576002612a73612a7c92612ba7565b94019384612739565b8051600681101561042057600403612b1057506080612aa5910151612aa081612513565b612c70565b612aae81612513565b61ff0082549160081b169061ff0019161781555b54917f96024e3b30a739745fa78b4734beca68f5af19898acce761615c4d34fde68124604060ff8086169560081c16815190612afe8288612506565b612b0781612513565b6020820152a390565b905051600681101561042057600503612ac257805461ff0019168155612ac2565b60405190608082018281106001600160401b038211176125665760405260006060838281528260208201528260408201520152565b60ff60019116019060ff8211611f7557565b9190916001600160801b0380809416911601918211611f7557565b61ffff9182169082160391908211611f7557565b60068110156104205760028114612be55760038114612bdf5760048114612bd957600514612bd457600090565b600490565b50600390565b50600290565b50600190565b6103e8916001600160801b0361ffff612c069316911661252a565b048015612c105790565b60405162df838d60e71b8152600490fd5b60ff16600103612c47576103e8916001600160801b0361ffff612c06935b16911661252a565b61ffff8091166103e803908111611f75576103e8916001600160801b0361ffff612c0693612c3f565b612c7981612513565b60018114612be55780612c8d600292612513565b14612c9757600090565b600290565b6004821015612cac570190600090565b634e487b7160e01b600052603260045260246000fd5b92600091848352600a60205260ff6040842094169384845260205260016040842094612d4961ffff9485811697888852602052866040812055888752600b60205260408720838852602052612d2060ff8260081c1660408920612c9c565b90918560ff845492161b19908260031b1c169082549060031b91821b91600019901b1916179055565b14612d97576002019281845460601c1614612d65575b50505050565b612d71612d8e9461309c565b915081166107755750805461ffff60601b1916607d60631b179055565b38808080612d5f565b6002919392500191825460501c1614612dae575050565b612dba612dd692612ffa565b815461ffff60501b191660509190911b61ffff60501b16179055565b565b90916000928284526020600a81526040918286206001875282528286209261ffff9485811694858952845281882087895260098552828920988154936001600160401b039a8b8616835287526002818320019a8b54821c1680956001600160401b0319161783558415612e60575b505050505050505050506001600160881b03198154169055565b600296612ed195612ea794558a8352600a8152818320600184528152818320898452815282828120558a8352600b815281832090600184525260ff8460081c169120612c9c565b9091600160ff845492161b19908260031b1c169082549060031b91821b91600019901b1916179055565b0191825460501c1614612eec575b8080808080808080612e46565b612dba612ef892612ffa565b3880612edf565b9060008281526020600a81526040908183206002845281528183209361ffff928388169586865283528085209787865260098452818620988054926001600160401b039a8b8516895286526002818920019a8b54821c1680946001600160401b0319161782558315612f8557505050505050505050506001600160881b03198154169055565b600295612fcb94612ea793558a8952600a8152818920878a5281528189208a8a52815288828120558a8952600b815281892090878a525260ff8360081c16908820612c9c565b019281845460601c1614612fe5575b808080808080612e46565b612d71612ff19461309c565b38808080612fda565b6000908152600b6020526040812060018252602052604081206004906004805b6130245750505090565b600019016130328183612c9c565b90549060031b1c8181156130955760081b90828204610100148315171561308257906130606130669261316e565b9061251d565b6103e8811061307657508061301a565b61ffff16949350505050565b634e487b7160e01b865260118552602486fd5b905061301a565b6000908152600b602052604081206002825260205260408120815b600480821015613168576130cb8284612c9c565b90549060031b1c801561315e578019906001820180921161314b578360081b928484046101001485151715613138575061310a9291613060911661316e565b8015158061312d575b61312257506001905b016130b7565b61ffff169392505050565b506103e88110613113565b634e487b7160e01b875260119052602486fd5b634e487b7160e01b865260118352602486fd5b505060019061311c565b50505090565b6001600160801b03811160071b6001600160401b0382821c1160061b1763ffffffff82821c1160051b1761ffff82821c1160041b1760ff82821c1160031b17600f82821c1160021b17906d010102020202030303030303030360801b90821c1a179056fea2646970667358221220c3ada884e7ed86765f880560df5205b57844a2d1b1ebc675b302f6086cb2952064736f6c634300081800332f8788117e7eff1d82e926ec794901d17c78024a50270940304540a733656f0d",
  "linkReferences": {},
  "deployedLinkReferences": {}
}